{
  "contractName": "MyToken",
  "abi": [
    {
      "inputs": [
        {
          "internalType": "address[]",
          "name": "_address",
          "type": "address[]"
        }
      ],
      "name": "main",
      "outputs": [
        {
          "components": [
            {
              "internalType": "bool",
              "name": "success",
              "type": "bool"
            },
            {
              "internalType": "bytes",
              "name": "data",
              "type": "bytes"
            }
          ],
          "internalType": "struct MyToken.Result[]",
          "name": "results",
          "type": "tuple[]"
        }
      ],
      "stateMutability": "view",
      "type": "function"
    }
  ],
  "bytecode": "0x608060405234801561001057600080fd5b506105e7806100206000396000f3fe608060405234801561001057600080fd5b506004361061002b5760003560e01c8063ab9a28a914610030575b600080fd5b61004a60048036038101906100459190610204565b610060565b60405161005791906103fb565b60405180910390f35b606060008383905090508067ffffffffffffffff8111156100845761008361041d565b5b6040519080825280602002602001820160405280156100bd57816020015b6100aa610179565b8152602001906001900390816100a25790505b50915060005b818110156101715760405180604001604052806001151581526020018686848181106100f2576100f161044c565b5b905060200201602081019061010791906104d9565b73ffffffffffffffffffffffffffffffffffffffff163160405160200161012e919061051f565b6040516020818303038152906040528152508382815181106101535761015261044c565b5b6020026020010181905250808061016990610569565b9150506100c3565b505092915050565b6040518060400160405280600015158152602001606081525090565b600080fd5b600080fd5b600080fd5b600080fd5b600080fd5b60008083601f8401126101c4576101c361019f565b5b8235905067ffffffffffffffff8111156101e1576101e06101a4565b5b6020830191508360208202830111156101fd576101fc6101a9565b5b9250929050565b6000806020838503121561021b5761021a610195565b5b600083013567ffffffffffffffff8111156102395761023861019a565b5b610245858286016101ae565b92509250509250929050565b600081519050919050565b600082825260208201905092915050565b6000819050602082019050919050565b60008115159050919050565b6102928161027d565b82525050565b600081519050919050565b600082825260208201905092915050565b60005b838110156102d25780820151818401526020810190506102b7565b60008484015250505050565b6000601f19601f8301169050919050565b60006102fa82610298565b61030481856102a3565b93506103148185602086016102b4565b61031d816102de565b840191505092915050565b60006040830160008301516103406000860182610289565b506020830151848203602086015261035882826102ef565b9150508091505092915050565b60006103718383610328565b905092915050565b6000602082019050919050565b600061039182610251565b61039b818561025c565b9350836020820285016103ad8561026d565b8060005b858110156103e957848403895281516103ca8582610365565b94506103d583610379565b925060208a019950506001810190506103b1565b50829750879550505050505092915050565b600060208201905081810360008301526104158184610386565b905092915050565b7f4e487b7100000000000000000000000000000000000000000000000000000000600052604160045260246000fd5b7f4e487b7100000000000000000000000000000000000000000000000000000000600052603260045260246000fd5b600073ffffffffffffffffffffffffffffffffffffffff82169050919050565b60006104a68261047b565b9050919050565b6104b68161049b565b81146104c157600080fd5b50565b6000813590506104d3816104ad565b92915050565b6000602082840312156104ef576104ee610195565b5b60006104fd848285016104c4565b91505092915050565b6000819050919050565b61051981610506565b82525050565b60006020820190506105346000830184610510565b92915050565b7f4e487b7100000000000000000000000000000000000000000000000000000000600052601160045260246000fd5b600061057482610506565b91507fffffffffffffffffffffffffffffffffffffffffffffffffffffffffffffffff82036105a6576105a561053a565b5b60018201905091905056fea26469706673582212205a84b0bfb7889bf4c11e2a11cb9dd732a3dab6bff037d0745f99a4c57ca155dd64736f6c63430008100033",
  "immutableReferences": {},
  "source": "// SPDX-License-Identifier: MIT\r\npragma solidity ^0.8.0;\r\n\r\nimport \"@openzeppelin/contracts/utils/Strings.sol\";\r\n\r\ncontract MyToken {\r\n    struct Result {\r\n        bool success;\r\n        bytes data;\r\n    }\r\n\r\n    function main(address[] calldata _address)\r\n        external\r\n        view\r\n        returns (Result[] memory results)\r\n    {\r\n        uint256 length = _address.length;\r\n        results = new Result[](length);\r\n        for (uint256 i = 0; i < length; i++) {\r\n            results[i] = Result(true, abi.encode(_address[i].balance));\r\n        }\r\n    }\r\n}\r\n",
  "sourcePath": "D:\\Projects\\web3-chainlink\\contracts\\MyToken.sol",
  "compiler": {
    "name": "solc",
    "version": "0.8.16+commit.07a7930e.Emscripten.clang"
  },
  "schemaVersion": "3.4.9",
  "updatedAt": "2022-09-17T15:06:34.622Z",
  "devdoc": {
    "kind": "dev",
    "methods": {},
    "version": 1
  },
  "userdoc": {
    "kind": "user",
    "methods": {},
    "version": 1
  }
}